:030000000214F8EF
:0C14F800787FE4F6D8FD7581200213AD6A
:1013AD00120AD574FFFFFE1213F5E490002EF0A380
:1013BD00F074FF90002CF0A3F0120AD57F007EF898
:1013CD001213F57FB87E0B1214B47FE07E07121353
:1013DD00F57FB87E0B1214B47F1F7E001213F57FBC
:0813ED00B87E0B1214B480D18C
:021513002000B6
:101439008F20A2079295C297D297A2069295C2973A
:10144900D297A2059295C297D297A2049295C29774
:10145900D297A2039295C297D297A2029295C29768
:10146900D297A2019295C297D297A2009295C2975C
:03147900D29722E5
:0914EA001214F37F2B12150EFF02
:0514F300D28202143951
:1014DA00AD07AC06D282ECFF121439AF05021439FB
:05150E00C28202143945
:0A15040012150EAE04AF050214DA52
:10147C008F828E837F2A12150EE4FF1214F3AF8233
:10148C001214F3FF1214F3AF031214EAED2420FF2D
:10149C001214F3E4FF1214F390002AA3E02420FFAB
:0814AC001214F37F2C02150E4F
:100AD500D28020805BE4FDFCFFFE1215047BFF7ACB
:100AE500157913E4FDFCFFFE121124900004120F8A
:100AF5006800000000E4900008F0FDFCFFFE120F06
:100B050099E4900006F0FBFAFDFCFFFE1211B8E433
:100B1500FDFCFFFE121318E4900006F0A3F0FBFAAB
:100B2500FDFCFFFE12107AE4FBFDFCFFFE1206F34E
:100B3500C2817F147E001214B4D2817F147E00120C
:100B450014B4C2807F1112150E7F147E001214B4E6
:100B55007F2612150E7F041214F37FB112150E7F36
:100B65000E1214F37F101214F37FC012150E7F08B6
:100B75001214F3E4FF1214F37FC112150E7F051250
:100B850014F37FC512150E7F381214F37F4012142B
:100B9500F37F3A12150E7F051214F37F3612150EE8
:100BA5007F1C1214F37F2A1214EF1214F31214F39C
:100BB5007F7F1214EA7F201214F3FF1214F37F9F34
:100BC5001214F37FB41214EF7FF212150E7F011287
:100BD50014F37FE012150E7F3F1214F37F221214D7
:100BE500F37F201214F37F301214F37F291214F3CC
:100BF5007F0C1214F37F4E1214F37FB71214F37F98
:100C05003C1214F37F191214F37F221214F37F1E82
:100C15001214F37F021214F31F1214F31F1214F3AC
:100C25007FE11214EF7F1B1214F37F1F1214F37F61
:100C35000F1214F37F161214F37F131214F37F317E
:100C45001214F37F841214F37F431214F37F0612F8
:100C550014F37F1D1214F37F211214F37F3D121438
:100C6500F30F1214F30F1214F37F2912150E7F2CB4
:030C750002150E57
:0213F500AC0644
:1013F700EC900000F0A90790002AE4F0A3747FF0B6
:10140700FB7A00E4FDFCFFFE12147CE4FBFA90007B
:1014170000E0FF1214F3AF011214F30BBB00010A33
:10142700EB64804A70E80DBD00010CED64804C70E0
:01143700DADA
:011438002291
:1012C600900004E0FEA3E0FF900001E02FFF9000F5
:1012D60000E03E900006FEE0FCA3E0FD900003E087
:0812E6002DFD900002E03CFC2C
:1012EE00AB07AA068D828C83C006C007AE83AF8281
:1012FE0090002AEEF0A3EFF0D007D00612147C90E7
:0A130E00002CE0FEA3E0FF0214DA59
:10131800AB07AA068D828C83EB24FFFFEA34FFFE1D
:10132800C006C007E58224FFFDE58334FFFCEB24FB
:1013380001FBE43AFAAE83AF82EF2401FFE43E906A
:101348000006F0A3EFF090002CE0FFA3E090000867
:0C135800CFF0A3EFF0D007D00602124047
:10124000900000EEF0A3EFF0A3ECF0A3EDF0A3EA22
:04125000F0A3EBF02C
:10125400C007A3E0FFA3E090002ACFF0A3EFF0D0F3
:101264000712147C900002E0FFA3E090000ACFF084
:10127400A3EFF0900006E0FEA3E0FFD390000BE0A4
:101284009F90000AE09E5039900000E0FEA3E0FB2E
:10129400AA06C3900005E09B900004E09A401290D7
:1012A4000008E0FEA3E0FF1214DA0BBB00010A8081
:1012B400E190000BE004F070BA90000AE004F080C2
:0112C400B277
:0112C5002206
:0E08EA00900008EEF0A3EFF0A3ECF0A3EDF009
:1008F800E4900012F0A3F0A3F0A3F0900008E0FE4B
:10090800A3E0FFC3EB9FFFEA9E900016F0A3EFF071
:1009180090000AE0FAA3E0FBC390000FE09BFE9072
:10092800000EE09A900018F0A3CEF0900008E0FFC7
:10093800A3E0900020CFF0A3EFF0A3EAF0A3EBF040
:10094800900016E0FEA3E0FFD39400EE648094804C
:10095800400A90001CE4F0A304F08021EF4E7008D8
:1009680090001CF0A3F0801574FF90001CF0A3F019
:10097800C3E49FFFE49E900016F0A3EFF0900018E8
:10098800E0FEA3E0FFD39400EE64809480400A90D8
:10099800001EE4F0A304F08021EF4E700890001EC2
:1009A800F0A3F0801574FF90001EF0A3F0C3E49F3D
:1009B800FFE49E900018F0A3EFF0900018E0FEA36B
:1009C800E0FF900016E0FCA3E0FDD39FEE6480F802
:1009D800EC64809890001A4007ECF0A3EDF08005D5
:1009E800EEF0A3EFF0E4900010F0A3F090001BE00D
:1009F8002401FF90001AE03400FED3900011E09F1C
:100A0800900010E09E4003020AD4900020E0FEA36C
:100A1800E0FFA3E0FCA3E0FD1212EE900016E0FE5A
:100A2800A3E0FF900013E02FF0900012E03EF0905A
:100A38000018E0FEA3E0FF900015E02FF0900014EE
:100A4800E03EF090001AE0FEA3E0FF900012E0FC08
:100A5800A3E0FDD39FEE6480F8EC6480984020ED1D
:100A68009FFFEC9E900012F0A3EFF090001CE0FEB8
:100A7800A3E0FF900021E02FF0900020E03EF090EE
:100A8800001AE0FEA3E0FF900014E0FCA3E0FDD311
:100A98009FEE6480F8EC6480984020ED9FFFEC9E08
:100AA800900014F0A3EFF090001EE0FEA3E0FF908A
:100AB8000023E02FF0900022E03EF0900011E004C7
:0C0AC800F07006900010E004F00209F449
:010AD40022FF
:10107A00900004EAF0A3EBF0900000EEF0A3EFF08A
:10108A00A3ECF0A3EDF0C007A3E0FAA3E0FB900005
:10109A0002E0FFA3E090000ECFF0A3EFF0D007121A
:1010AA0008EA900000E0FAA3E0FBFFAE02C007A343
:1010BA00E0FCA3E0FD900006E0FFA3E090000ECF65
:1010CA00F0A3EFF0D0071208EA900006E0FCA3E0D4
:1010DA00FD900004E0FAA3E0FBA3E0FFA3E0900088
:1010EA000ECFF0A3EFF0900000E0FEA3E0FF12089D
:1010FA00EA900004E0FAA3E0FBFFAE02C00790000A
:10110A0002E0FCA3E0FD900006E0FFA3E090000EE1
:0A111A00CFF0A3EFF0D0070208EABF
:0E06F300900000EEF0A3EFF0A3ECF0A3EDF00A
:10070100E4A3F0A3F0EBFF7E00A3EEF0A3EFF0254E
:10071100E0FFEE33FEC374039F900009F0E49E9066
:100721000008F0900006E0FEA3E0FFD3900005E092
:100731009FEE6480F8900004E06480984003020812
:10074100E9C3900001E09FFF900000E09EFE900051
:1007510004E0FCA3E0FDC3900003E09DFD900002D6
:10076100E09CFC1212EE900006E0FEA3E0FF900078
:1007710001E02FFF900000E03EFE900004E0FCA3AA
:10078100E0FDC3900003E09DFD900002E09CFC129F
:1007910012EE900004E0FEA3E0FFC3900001E09F91
:1007A100FF900000E09E1212D9900006E0FEA3E047
:1007B100FFC3900001E09FFF900000E09EFE9000CB
:1007C10004E0FCA3E0FDC3900003E09DFD90000266
:1007D100E09CFC1212EE900004E0FEA3E0FFC39047
:1007E1000001E09FFF900000E09EFE900006E0FC0B
:1007F100A3E0FDC3900003E09DFD900002E09CFC9E
:100801001212EE900006E0FEA3E0FF900001E02F3F
:10081100FF900000E03E9000041212DC900004E022
:10082100FEA3E0FF900001E02FFF900000E03EFEFC
:10083100900006E0FCA3E0FDC3900003E09DFD9065
:100841000002E09CFC1212EE1212C6900006E0FEBD
:10085100A3E0FFC3900001E09FFF900000E09EFE37
:100861009000041212DD900005E004F07006900083
:1008710004E004F0C3900008E06480948050249068
:100881000004E0FEA3E07802C333CE33CED8F924CE
:1008910006FFE43EFE900009E02FF0900008E03EE4
:1008A100F0803F900006E0FEA3E0FFC3900005E06A
:1008B1009FFF900004E09EFEEF7802C333CE33CE5B
:1008C100D8F9240AFFE43EFE900009E02FF09000E1
:1008D10008E03EF0900007E024FFF0900006E034CD
:0808E100FFF01212C602072409
:0108E90022EC
:100C780090000CEEF0A3EFF0A3ECF0A3EDF0A3EBE3
:010C8800F07B
:100C890090000CE0FEA3E0FF900014EEF0A3EFF05B
:100C990090002CE0FDA3E0900016CDF0A3EDF0D379
:100CA900EF9470EE94004003020E0F90000EE0FCEA
:100CB900A3E0FD9470EC94004003020E0F90001025
:100CC900E024E0F090000CE0FAA3E0FFAE02C006D9
:100CD900C0072407FBE43AFAA3E0FEA3E0240FFFD0
:100CE900E43E90002AF0A3EFF0D007D00612147C5E
:100CF900900011E06003020D97F9900010E075F083
:100D090010A4FFE97C002FFFEC35F0FE74032FF5EA
:100D19008274013EF583E493900012F0E4A3F0900D
:100D29000012E030E005900016800390002EE0FFED
:100D3900A3E090002CCFF0A3EFF090002CE0FEA3ED
:100D4900E0FF1214DA900012E0C313F090000DE0F6
:100D590004F0700690000CE004F0900013E004F039
:100D6900E0C3940840B9900014E0FFA3E090000CA0
:100D7900CFF0A3EFF090000FE004F0700690000EA2
:100D8900E004F009E964106003020D038069E4F9E5
:100D9900900010E075F010A4FFE97C002FFFEC35FE
:100DA900F0FE74032FF58274013EF583E4939000FD
:100DB90012F0E4A3F0900013E0FFC39408503390BD
:100DC9000012E030E01F90000DE02FFF90000CE0D2
:100DD9003400FEE9FD90000FE02DFD90000EE03497
:100DE90000FC1212EE900012E0C313F0A3E004F02D
:100DF90080C309E9B41099900016E0FFA3E09000C0
:060E09002CCFF0A3EFF076
:010E0F0022C0
:0813640090000CEFF0A3EDF086
:10136C00A3120F680000000190000DE0FF14F0EFD5
:10137C006020A3E0F8A3E0F9A3E0FAA3E0FB90005F
:10138C000CE0FFE4FCFDFE120E3F90000E120F5C11
:10139C0080D690000EE0FCA3E0FDA3E0FEA3E0FFEE
:0113AC00221E
:0E0F9900900000EEF0A3EFF0A3ECF0A3EDF05B
:100FA700E490000BF0900004A3A3E0FEA3E0FFE4AD
:100FB700FCFD900004120F5CE4900009F09000081B
:100FC700E0FFA3E0FEC39F4003021079C3EF9E1426
:100FD700FD7F0A121364A804A905AA06AB079000AF
:100FE70004E0FCA3E0FDA3E0FEA3E0FF120ECAE4C9
:100FF7007B0AFAF9F8120ECA90000AEBF0A3E07028
:101007003B900008E014FFA3E0FEC39F502EA3E02F
:101017007024EE75F008A4FF900001E02FFF900008
:1010270000E035F0FE900002E0FCA3E0FDE4900054
:1010370011F07B20803090000B7401F0900009E0E4
:1010470075F008A4FF900001E02FFF900000E03545
:10105700F0FE900002E0FCA3E0FD90000AE02430DF
:10106700FBE4900011F0120C78900009E004F00204
:021077000FC4A4
:011079002254
:1011B800900000EEF0A3EFF0A3ECF0A3EDF0A3EAAB
:0411C800F0A3EBF0B5
:1011CC00E4900007F0900006E0F9A3E0FFC399500B
:1011DC0062C3E99F14FD7F0A121364A804A905AA2F
:1011EC0006AB07900004E0FEA3E0FFE4FCFD120E4A
:1011FC00CAE47B0AFAF9F8120ECAAF03900008EFA2
:10120C00F0900007E075F008A4FF900001E02FFFBC
:10121C00900000E035F0FE900002E0FCA3E0FDEB56
:10122C002430FBE4900011F0120C78900007E004DD
:03123C00F08092AD
:01123F00228C
:10112400900000EEF0A3EFF0A3ECF0A3EDF0A3EB3E
:10113400F0A3EAF0A3E9F0900004E0FBA3E0FAA333
:10114400E0F9120E10FB606BD3900001E0947090F4
:101154000000E094004012E4F0A3F0900003E024C7
:1011640010F0900002E03400F0D3900003E094709B
:10117400900002E09400400BE4900000F0A3F0A380
:10118400F0A3F0900000E0FEA3E0FFA3E0FCA3E0E6
:10119400FDE4900011F0120C78900001E02408F0B6
:1011A400900000E03400F0900005E475F001120EA8
:0411B40029808422E8
:1014B400E4FDFCC3ED9FEE6480F8EC648098501565
:1014C400E4FBFA0BBB00010ABA03F8BBE8F50DBD57
:0514D40000010C80DEA8
:0114D90022F0
:1000030000000000000000000000800000FEFF016F
:1000130000FEFF010006C0000006C0000006C0008D
:1000230000FEFF000006C0000006C0000006C0007E
:1000330000FEFF000006C0000006C0000002000032
:1000430030300C1CF07FFC3F30300C1C30300C1C6B
:1000530030300C1C30300C1CF03FFC1F30300C1CBB
:1000630030300C1C30300C1C30300C1CF03FFC1FAB
:10007300F03FFC1F30300C1C3010040C000000005B
:100083000000000000000000C0000808C0F1FF1FCE
:10009300C0F0FF1FC0484C1CC4DCCC1DCCDC8D1D44
:1000A300DC8E8D1DD8060E1FF8C3EF1DF8F1EC1C76
:1000B300D0601D1CC01C770CFE9FE7003483E30C4B
:1000C30030C3FF1F30C3610030E3610030E36106DA
:1000D30030F3FF0F30DB610030FB610438DB610E6E
:1000E30018CFFF0F18C7610098C761000CC36138B0
:1000F30004C2FF3F06C0010002C00100000000006F
:1001030000000000000000000000000000000000EC
:100113000000000808080808080800001818000074
:1001230000486C24120000000000000000000000E2
:100133000000002424247F1212127F1212120000E6
:100143000000081C2A2A0A0C1828282A2A1C080836
:1001530000000022251515152A5854545422000076
:100163000000000C1212120A76252911916E00006C
:100173000006060403000000000000000000000069
:10018300004020101008080808080810102040003C
:1001930000020408081010101010100808040200D0
:1001A3000000000008086B1C1C6B0808000000001E
:1001B30000000000080808087F080808080000007D
:1001C3000000000000000000000000000606040319
:1001D3000000000000000000FE000000000000001E
:1001E3000000000000000000000000000606000000
:1001F3000000804040202010100808040402020080
:1002030000000018244242424242424224180000A5
:10021300000000080E08080808080808083E000047
:100223000000003C4242422020100804427E0000AD
:100233000000003C4242201820404042221C0000A3
:10024300000000203028242422227E202078000071
:100253000000007E0202021A26404042221C0000D7
:10026300000000382402021A2642424224180000E9
:100273000000007E22221010080808080808000069
:100283000000003C4242422418244242423C000007
:10029300000000182442424264584040241C0000DD
:1002A30000000000000018180000000018180000EB
:1002B300000000000000000800000000000808041F
:1002C3000000004020100804020408102040000031
:1002D3000000000000007F0000007F00000000001D
:1002E300000000020408102040201008040200004F
:1002F3000000003C42424640201010001818000045
:100303000000001C225A555555552D42221C000051
:100313000000000808181414243C224242E700009D
:100323000000001F2222221E22424242221F0000FE
:100333000000007C4242010101010142221C000035
:100343000000001F2242424242424242221F00005A
:100353000000003F4212121E12120242423F0000EE
:100363000000003F4212121E121202020207000096
:100373000000003C2222010101712122221C000005
:10038300000000E7424242427E42424242E700000E
:100393000000003E0808080808080808083E000096
:1003A3000000007C10101010101010101010110F0E
:1003B3000000007722120A0E0A121222227700008E
:1003C300000000070202020202020202427F000052
:1003D30000000077363636362A2A2A2A2A6B00008E
:1003E300000000E346464A4A525252626247000006
:1003F3000000001C2241414141414141221C0000B7
:100403000000003F424242423E0202020207000055
:100413000000001C2241414141414D53321C600008
:100423000000003F4242423E1212222242C7000015
:100433000000007C4242020418204042423E000079
:100443000000007F4908080808080808081C000085
:10045300000000E74242424242424242423C000024
:10046300000000E742422224241414180808000064
:100473000000006B494949495555362222220000A4
:10048300000000E7422424181818242442E700003F
:10049300000000772222141408080808081C000032
:1004A3000000007E2120101008040442423F000097
:1004B30000780808080808080808080808087800E9
:1004C3000000020204040808081010202020404005
:1004D300001E1010101010101010101010101E001D
:1004E300003844000000000000000000000000008D
:1004F300000000000000000000000000000000FFFA
:1005030000060800000000000000000000000000DA
:10051300000000000000003C4278444242FC00001E
:10052300000000030202021A26424242261A000079
:1005330000000000000000384402020244380000BA
:1005430000000060404040784442424264D80000CA
:10055300000000000000003C427E0202423C00001A
:10056300000000F08808087E08080808083E00001C
:10057300000000000000007C22221C023C42423C9E
:10058300000000030202023A4642424242E70000F0
:100593000000000C0C00000E08080808083E0000CC
:1005A3000000003030000038202020202020221EB0
:1005B3000000000302020272120A161222770000E0
:1005C3000000000E0808080808080808083E000094
:1005D300000000000000007F9292929292B7000008
:1005E300000000000000003B4642424242E7000098
:1005F300000000000000003C42424242423C000036
:10060300000000000000001B26424242221E020797
:10061300000000000000007844424242447840E079
:1006230000000000000000774C040404041F0000D5
:10063300000000000000007C42023C40423E0000FB
:10064300000000000008083E080808080830000001
:1006530000000000000000634242424262DC0000EE
:1006630000000000000000E74224241408080000F2
:1006730000000000000000EB49495555222200000C
:10068300000000000000007624181818246E0000F3
:1006930000000000000000E74224241418080807A3
:1006A300000000000000007E22100808447E0000C5
:1006B30000C0202020202010202020202020C00047
:1006C3001010101010101010101010101010101027
:1006D30000060808080808100808080808080600A3
:1006E3000C32C20000000000000000000000000007
:100E1000BB010689828A83E0225002E722BBFE02E0
:090E2000E32289828A83E4932213
:100E2900C5F0F8A3E028F0C5F0F8E5821582700254
:060E39001583E038F022F1
:100E3F00E88FF0A4CC8BF0A42CFCE98EF0A42CFC52
:100E4F008AF0EDA42CFCEA8EF0A4CDA8F08BF0A4D0
:100E5F002DCC3825F0FDE98FF0A42CCD35F0FCEB2F
:100E6F008EF0A4FEA9F0EB8FF0A4CFC5F02ECD39F4
:0F0E7F00FEE43CFCEAA42DCE35F0FDE43CFC2261
:100E8E0075F008758200EF2FFFEE33FECD33CDCC1B
:100E9E0033CCC58233C5829BED9AEC99E58298409E
:100EAE000CF582EE9BFEED9AFDEC99FC0FD5F0D67B
:100EBE00E4CEFBE4CDFAE4CCF9A88222B800C1B9A5
:100ECE000059BA002DEC8BF084CFCECDFCE5F0CBE3
:100EDE00F97818EF2FFFEE33FEED33FDEC33FCEB1C
:100EEE0033FB10D703994004EB99FB0FD8E5E4F9D7
:100EFE00FA227818EF2FFFEE33FEED33FDEC33FCC4
:100F0E00C933C910D7059BE99A4007EC9BFCE99AB7
:100F1E00F90FD8E0E4C9FAE4CCFB2275F010EF2FFC
:100F2E00FFEE33FEED33FDCC33CCC833C810D707FC
:100F3E009BEC9AE899400AED9BFDEC9AFCE899F837
:0E0F4E000FD5F0DAE4CDFBE4CCFAE4C8F922CA
:0C0F5C00ECF0A3EDF0A3EEF0A3EFF02208
:100F6800A8828583F0D083D082120F7F120F7F1260
:100F78000F7F120F7FE473E493A3C583C5F0C58385
:100F8800C8C582C8F0A3C583C5F0C583C8C582C8D3
:010F98002236
:00000001FF
